:100000000C9462000C948A000C948A000C948A0070
:100010000C948A000C948A000C948A000C948A0038
:100020000C948A000C948A000C948A000C948A0028
:100030000C948A000C948A000C948A000C948A0018
:100040000C94FA030C948A000C946A040C944404F3
:100050000C948A000C948A000C948A000C948A00F8
:100060000C948A000C948A000000000023002600F3
:10007000290000000000240027002A0000000000E2
:10008000250028002B0004040404040404040202D4
:100090000202020203030303030301020408102007
:1000A0004080010204081020010204081020000012
:1000B0000008000201000003040700000000000027
:1000C00000009C0411241FBECFEFD8E0DEBFCDBFDF
:1000D00011E0A0E0B1E0E6EEFCE002C005900D9278
:1000E000A231B107D9F721E0A2E1B1E001C01D9230
:1000F000A43DB207E1F710E0C2E6D0E004C02197CA
:10010000FE010E943506C136D107C9F70E940305DA
:100110000C9471060C940000833081F028F4813037
:1001200099F08230A9F008958730A9F08830C9F09D
:100130008430B1F4809180008F7D03C08091800075
:100140008F7780938000089584B58F7784BD08955C
:1001500084B58F7DFBCF8091B0008F778093B00006
:1001600008958091B0008F7DF9CF1F93CF93DF93D7
:10017000282F30E0F901E255FF4F8491F901E6564E
:10018000FF4FD491F901EA57FF4FC491CC23A9F056
:10019000162F81110E948C00EC2FF0E0EE0FFF1F54
:1001A000E458FF4FA591B4918FB7F894EC911111D9
:1001B00008C0D095DE23DC938FBFDF91CF911F91D4
:1001C0000895DE2BF8CFCF93DF93EC018091C2012D
:1001D0009091C301029749F4C130D10509F43BC0A5
:1001E0006CF560E0209709F437C08091C2019091CE
:1001F000C301049749F4C130D10509F45CC00CF087
:1002000037C0209709F442C08091C2019091C30188
:10021000059709F0E5C0CA30D10508F0E1C0FE013C
:10022000EC5EFE4F0C94350673017F019001A60130
:10023000C101C301CA01D601E701EE01C230D105F7
:10024000A9F060E0C330D10581F68091C6010E941B
:10025000B50060E006C061E08091C6010E94B50073
:1002600061E08091C8010E94B500BFCF61E0EDCF91
:10027000C230D10539F1C330D10509F0C5CF61E0F5
:100280008091C6010E94B50060E022C061E08091CB
:10029000C6010E94B50060E08091C8010E94B500CF
:1002A00061E08091CA010E94B50060E08091CC01BC
:1002B0000E94B500A9CF60E08091C6010E94B50000
:1002C00061E0EACF60E08091C6010E94B50061E084
:1002D0008091C8010E94B50060E08091CA010E942F
:1002E000B50061E0E3CF60E08091C6010E94B500F7
:1002F00061E08091C8010E94B50061E00BC060E040
:100300008091C6010E94B50061E08091C8010E9401
:10031000B50060E08091CA010E94B50060E010C0A5
:1003200060E08091C6010E94B50061E08091C80143
:100330000E94B50060E08091CA010E94B50061E0B2
:100340008091CC010E94B50061E015C060E0809111
:10035000C6010E94B50061E08091C8010E94B5000D
:1003600060E08091CA010E94B50061E08091CC01FB
:100370000E94B50060E08091CE01DF91CF910C9496
:10038000B50061E0E4CF61E08091C6010E94B50054
:1003900060E0E2CF61E08091C6010E94B50060E0BC
:1003A0008091C8010E94B50061E0DBCF61E08091DF
:1003B000C6010E94B50060E08091C8010E94B500AE
:1003C00061E08091CA010E94B50060E0CFCF61E09A
:1003D0008091C6010E94B50060E08BCF60E0F8CF4D
:1003E000DF91CF9108958F929F92AF92BF92EF923B
:1003F000FF920F931F93CF93DF93EC0197FF04C0FD
:10040000CC27DD27C81BD90B181619060CF082C0A3
:1004100081E090E09093BB018093BA0104E010E08A
:100420005AE0E52EF12C209709F490C03FB7F894DC
:100430008091190190911A01A0911B01B0911C01AA
:1004400026B5A89B05C02F3F19F00196A11DB11D2F
:100450003FBFBA2FA92F982F8827820F911DA11D6A
:10046000B11D42E0880F991FAA1FBB1F4A95D1F703
:100470004091D0015091D1016091D2017091D3018E
:100480004C015D01841A950AA60AB70A4091BC0185
:100490005091BD016091BE017091BF018416950617
:1004A000A606B70608F4BFCF8093D0019093D10180
:1004B000A093D201B093D3018091C4019091C50162
:1004C0002091BA013091BB012130310559F50196D7
:1004D0009093C5018093C4012091C0013091C10166
:1004E0008217930721F41092C5011092C40121973D
:1004F0008091C4019091C5012091C2013091C30146
:10050000B7012530310509F0B8010E9402060E94AA
:10051000E30089CF892B09F481CF1092BB0110929F
:10052000BA017CCF892B41F48091C0019091C10127
:100530009093C5018093C4018091C4019091C5013D
:1005400001979093C5018093C401D1CFDF91CF91E2
:100550001F910F91FF90EF90BF90AF909F908F9061
:100560000895CF93DF9390E0FC01E656FF4F24916E
:100570008A579F4FFC0184918823C9F090E0880F2F
:10058000991FFC01EE58FF4FA591B491FC01E4586E
:10059000FF4FC591D49161110DC09FB7F8948C9114
:1005A000209582238C938881282328839FBFDF9105
:1005B000CF910895623051F49FB7F8943C91822F07
:1005C000809583238C93E8812E2BEFCF8FB7F894FF
:1005D000EC912E2B2C938FBFEACFAF92BF92CF928C
:1005E000DF92EF92FF920F931F93CF93DF936C01F3
:1005F0007B018B01040F151FEB015E01AE18BF08D4
:10060000C017D10759F06991D601ED91FC91019085
:10061000F081E02DC6010995892B79F7C501DF919D
:10062000CF911F910F91FF90EF90DF90CF90BF90EF
:10063000AF900895FC01538D448D252F30E0842F19
:1006400090E0821B930B541710F0CF9608950197FA
:100650000895FC01918D828D981761F0A28DAE0FE7
:10066000BF2FB11D5D968C91928D9F5F9F73928F6E
:1006700090E008958FEF9FEF0895FC01918D828D9A
:10068000981731F0828DE80FF11D858D90E0089567
:100690008FEF9FEF0895FC01918D228D892F90E0BF
:1006A000805C9F4F821B91098F73992708958DE17C
:1006B00091E00E944B0321E0892B09F420E0822F76
:1006C000089580E090E0892B29F00E945703811162
:1006D0000C9400000895FC01A48DA80FB92FB11D42
:1006E000A35ABF4F2C91848D90E001968F73992768
:1006F000848FA689B7892C93A089B1898C91837046
:1007000080648C93938D848D981306C00288F3893E
:10071000E02D80818F7D80830895EF92FF920F936B
:100720001F93CF93DF93EC0181E0888F9B8D8C8D9D
:1007300098131AC0E889F989808185FF15C09FB791
:10074000F894EE89FF896083E889F9898081837054
:10075000806480839FBF81E090E0DF91CF911F9103
:100760000F91FF90EF900895F62E0B8D10E00F5F24
:100770001F4F0F731127E02E8C8D8E110CC00FB6FA
:1007800007FCFACFE889F989808185FFF5CFCE0192
:100790000E946B03F1CFEB8DEC0FFD2FF11DE35A9F
:1007A000FF4FF0829FB7F8940B8FEA89FB89808115
:1007B0008062CFCFCF93DF93EC01888D8823B9F08F
:1007C000AA89BB89E889F9898C9185FD03C080815C
:1007D00086FD0DC00FB607FCF7CF8C9185FFF2CFD9
:1007E000808185FFEDCFCE010E946B03E9CFDF91C1
:1007F000CF9108951F920F920FB60F9211242F934D
:100800003F938F939F93AF93BF93809115019091E6
:100810001601A0911701B09118013091140123E045
:10082000230F2D3758F50196A11DB11D20931401FA
:100830008093150190931601A0931701B0931801AE
:100840008091190190911A01A0911B01B0911C0196
:100850000196A11DB11D8093190190931A01A093D7
:100860001B01B0931C01BF91AF919F918F913F915C
:100870002F910F900FBE0F901F90189526E8230F11
:100880000296A11DB11DD2CF1F920F920FB60F92EB
:1008900011242F933F934F935F936F937F938F9385
:1008A0009F93AF93BF93EF93FF938DE191E00E94ED
:1008B0006B03FF91EF91BF91AF919F918F917F91CA
:1008C0006F915F914F913F912F910F900FBE0F90BD
:1008D0001F9018951F920F920FB60F9211242F930D
:1008E0008F939F93EF93FF93E0912D01F0912E0151
:1008F0008081E0913301F091340182FD1BC0908131
:10090000809136018F5F8F7320913701821741F0FC
:10091000E0913601F0E0E35EFE4F958F8093360163
:10092000FF91EF919F918F912F910F900FBE0F909C
:100930001F9018958081F4CF0F931F93CF93DF936F
:10094000EDE1F1E01382128288EE93E0A0E0B0E0E6
:1009500084839583A683B78384E091E09183808329
:1009600085EC90E09587848784EC90E09787868774
:1009700080EC90E0918B808B81EC90E0938B828B6C
:1009800082EC90E0958B848B86EC90E0978B868B45
:10099000118E128E138E148ECAEBD1E01B861A862E
:1009A000198218821E8A1F8A188E198E80E293E09F
:1009B0009F838E8382E090E09D878C8783E090E028
:1009C0009F878E8704E010E0198B088B85E090E00C
:1009D0009B8B8A8B61E082E00E94B10261E08E8590
:1009E0000E94B10261E088890E94B10261E08A89B7
:1009F0000E94B1021D8A1C8A19870887DF91CF9156
:100A00001F910F910895789484B5826084BD84B558
:100A1000816084BD85B5826085BD85B5816085BDF9
:100A200080916E00816080936E00109281008091B1
:100A30008100826080938100809181008160809339
:100A40008100809180008160809380008091B1005E
:100A500084608093B1008091B00081608093B00089
:100A600080917A00846080937A0080917A0082601D
:100A700080937A0080917A00816080937A008091DF
:100A80007A00806880937A001092C100E0912D0175
:100A9000F0912E0182E08083E0912901F0912A01FA
:100AA0001082E0912B01F0912C018FEC8083109249
:100AB0003501E0913101F091320186E08083E091CF
:100AC0002F01F0913001808180618083E0912F01BE
:100AD000F0913001808188608083E0912F01F09156
:100AE0003001808180688083E0912F01F091300196
:100AF00080818F7D808360E08EE00E94B10262E0A1
:100B000088E00E94B10262E089E00E94B102209177
:100B1000C0013091C101032E000C440B550B60E065
:100B200077E883E993E00E941606CA01B90124E63A
:100B300030E040E050E00E9416062093BC01309364
:100B4000BD014093BE015093BF01C7EBD0E003EA63
:100B500010E09FE8E92E90E0F92E20E4A22E30E08C
:100B6000C32E30E0D32EFE018491F801B490F7013A
:100B70009490992099F081110E948C00E92DF0E069
:100B8000EE0FFF1FE859FF4FA591B4918C91B82249
:100B900029F08CE99FEF0E94F301E5CF80E991E015
:100BA0000E94F30110921301109212018091120120
:100BB000909113018E359140CCF4A0927C008091ED
:100BC0007A00806480937A0080917A0086FDFCCF61
:100BD00080917800809179008091120190911301A9
:100BE00001969093130180931201E0CFC114D104B8
:100BF00009F4B9CF0E945703882309F4B4CF0E94A7
:100C00000000B1CF97FB072E16F4009407D077FDB4
:100C100009D00E943B0607FC05D03EF490958195D3
:100C20009F4F0895709561957F4F0895052E97FB0E
:100C30001EF400940E942D0657FD07D00E944F0617
:100C400007FC03D04EF40C942D065095409530953A
:100C500021953F4F4F4F5F4F089590958095709528
:100C600061957F4F8F4F9F4F0895EE0FFF1F0590A7
:100C7000F491E02D0994AA1BBB1B51E107C0AA1FE8
:100C8000BB1FA617B70710F0A61BB70B881F991F2D
:100C90005A95A9F780959095BC01CD010895A1E2E0
:100CA0001A2EAA1BBB1BFD010DC0AA1FBB1FEE1FE6
:100CB000FF1FA217B307E407F50720F0A21BB30B31
:100CC000E40BF50B661F771F881F991F1A9469F7AD
:100CD00060957095809590959B01AC01BD01CF0109
:060CE0000895F894FFCF17
:100CE600000000008D03ED021A03DA034B0329030B
:020CF6003D03BC
:00000001FF
